:100000000C9405020C9422020C9422020C942202FD
:100010000C9422020C9422020C9422020C942202D0
:100020000C9422020C942D120C9422020C942202A5
:100030000C9422020C9438030C9422020C94220299
:100040000C9422020C9422020C9422020C942202A0
:100050000C94220247505320547261636B65720006
:1000600041542B48545450524541440D0A004154C8
:100070002B48545450414354494F4E3D300D0A00D3
:10008000220D0A0041542B48545450504152413DD6
:100090002255524C222C220041542B485454505289
:1000A0004541440D0A0041542B4854545041435497
:1000B000494F4E3D300D0A00220D0A0041542B4895
:1000C000545450504152413D2255524C222C220052
:1000D0004F4B0041540D0A0041542B5341504252A2
:1000E0003D302C310D0A0041542B48545450494E98
:1000F00049540D0A0041542B53415042523D322C79
:10010000310D0A0041542B53415042523D312C31A4
:100110000D0A0041542B48545450494E49540D0A7D
:100120000041542B53415042523D322C310D0A00B4
:1001300041542B53415042523D332C312C224150DB
:100140004E222C22544154412E444F434F4D4F2EAA
:10015000494E5445524E4554220D0A0041542B53EA
:10016000415042523D332C312C22434F4E54595072
:1001700045222C2247505253220D0A0041542B4352
:10018000474E53494E460D0A0041542B43474E53A8
:10019000494E460D0A002B46545045585447455485
:1001A0003A20322C32373634380D0A0041542B466F
:1001B00054504558544745543D342C2265706F22A5
:1001C0000D0A0041542B4654504558544745543D60
:1001D000310D0A0041542B46545047455450415468
:1001E000483D222F220D0A0041542B4654504745CA
:1001F000544E414D453D224D544B332E45504F22D8
:100200000D0A0041542B46545050573D2231313194
:10021000313131220D0A0041542B465450554E3D88
:1002200022637573746F6D6572220D0A0041542B41
:10023000465450534552563D223131362E323437D2
:100240002E3131392E313635220D0A0041542B53CF
:10025000415042523D322C310D0A0041542B534142
:100260005042523D312C310D0A0041542B53415024
:1002700042523D332C312C2241504E222C225441EB
:1002800054412E444F434F4D4F2E494E5445524EEC
:100290004554220D0A0041542B53415042523D33E4
:1002A0002C312C22434F4E54595045222C2247507A
:1002B0005253220D0A0041542B434750535253547A
:1002C0003D310D0A0041542B43474E535057523D88
:1002D000310D0A0041542B43474E534149443D33AD
:1002E000312C312C310D0A0041542B43474E5350D1
:1002F00057523D310D0A0041542B4347505352533E
:10030000543D310D0A0041542B43474E5350575230
:100310003D310D0A0041542B43474E5343484B3D5A
:10032000332C310D0A0041542B43434C4B3F0D0AF3
:10033000004F4B0041540D0A0041542B43504F577E
:10034000443D310D0A00415426570D0A0041542BFB
:10035000434C54533D310D0A0041542B434D474605
:100360003D310D0A002B4350494E3A20524541443D
:10037000590041542B4350494E3F0D0A0041542B24
:1003800043474E535057523D300D0A0041544530BB
:100390000D0A004F4B0041540D0A00415445300DE9
:1003A0000A002B435245473A20302C35002B43524C
:1003B00045473A20302C310041542B435245473FAA
:1003C0000D0A000D0A0041542B434D47443D0022C5
:1003D0000D0A0041542B434D47533D2200220D0A84
:1003E0000041542B434D47533D22000D0A00415418
:1003F0002B434D47443D000D0A0041542B434D47CC
:10040000523D002B434D54493A0011241FBECFE505
:10041000D8E0DEBFCDBF10E0A0E6B0E0E4E9FDE249
:1004200002C005900D92AE3CB107D9F714E0AEECD6
:10043000B0E001C01D92A530B107E1F70E9494041D
:100440000C94C8160C9400009C0140E050E0CA01D6
:10045000B90160587B47814E9F4FF3E0660F771FCD
:10046000881F991FFA95D1F7E4E0220F331F441F2C
:10047000551FEA95D1F70E948412215030408FEF2A
:100480008093D1008091D1008093D00030BD29B9F4
:1004900086E880BD88E98AB978940895EF92FF9242
:1004A0000F931F93262F7C0100E010E030E040E026
:1004B00050E0CA01B90128E438EE41E050E00E9462
:1004C00052126E0D7F1D801F911FB3E0660F771FC4
:1004D000881F991FBA95D1F7A4E0EE0CFF1C001FEE
:1004E000111FAA95D1F7A80197010E94A6122150C9
:1004F00030408FEF8093D1008091D1008093D00065
:1005000030BD29B986E880BD88E98AB978941F9101
:100510000F91FF90EF9008958091D0008F3F11F4DC
:10052000E0E01DC0E091D000FF27E7FDF095EE521E
:10053000FF4FE0819091D0008091D100981741F455
:100540008FEF8093D1008091D1008093D00007C0BD
:100550008091D0008F5F8093D0008091D0008E2F4B
:1005600008955D9BFECF8CB90895FC0104C05D9B8E
:10057000FECF8CB9319680818823C9F7089503C0D6
:100580005D9BFECF2CB9FC01019624912223C1F77B
:100590000895EF92FF920F931F93CF93DF937C0107
:1005A0008B01C0E0D0E007C00E948C02F701EC0F85
:1005B000FD1F80832196C017D107B0F3DF91CF9143
:1005C0001F910F91FF90EF9008958091D0008F3F81
:1005D00011F490E01AC09091D0008091D10098174A
:1005E00034F49091D1008091D0009F5F0DC0909124
:1005F000D0008091D100891714F091E006C090914D
:10060000D1008091D000935D981B892F089502C07E
:100610000E948C020E94E5028823D1F708951F935F
:10062000CF93DF93EC01162F0E94E5028117E0F3D0
:10063000CE01612F70E00E94C90281E0DF91CF916D
:100640001F9108951F93CF93DF93EC01162F0E9403
:10065000E502811738F0CE01612F70E00E94C902D7
:1006600081E002C0188280E0DF91CF911F91089550
:100670001F920F920FB60F9211242F933F934F9317
:100680008F939F93EF93FF934CB18091D100809112
:10069000D1002091D000992787FD909501963327AE
:1006A00027FD30958217930739F48091D0008F5F32
:1006B0008093D0008091D0008091D1008091D100B2
:1006C0008F5F8093D100E091D100FF27E7FDF09587
:1006D000EE52FF4F40838091D0008F3F11F4109273
:1006E000D000FF91EF919F918F914F913F912F916A
:1006F0000F900FBE0F901F90189580E090E0FC01C6
:10070000EE52FF4F1082019680389105C1F708958F
:10071000662311F0DC9A01C0DC98DD98A49AA59AB2
:10072000A69AA79AAF98AE98AD98AC9887FDAF9A65
:1007300086FDAE9A85FDAD9A84FDAC9ADE9A00C026
:10074000DE98AF98AE98AD98AC9883FDAF9A82FDD5
:10075000AE9A81FDAD9A80FDAC9ADE9A00C0DE981B
:10076000AC9AAD9AAE9AAF9A089580E097E201975D
:10077000F1F784E090E00197F1F7DC98DD9AA49816
:10078000A598A698A798DE9A00C09C9B02C080E11D
:1007900001C080E09D9980629E9980649F998068E5
:1007A000DE9800C0DE9A00C09C9981609D998260AD
:1007B0009E9984609F998860DE9808951F93182FF2
:1007C0000E94B503812F60E00E9488031F91089565
:1007D0001F93182F0E94B503812F61E00E948803A8
:1007E0001F910895662311F4805801C080540E941F
:1007F000DE0308950E94B50390E0089581E00E9411
:10080000DE03089582E00E94DE0308951F93182FEF
:100810000E94B5031A3049F4803410F080E001C022
:1008200080E480580E94DE0304C0812F61E00E94B2
:1008300088031F910895CF93DF93EC0102C00E94BB
:10084000060489918823D9F7DF91CF910895CF933A
:10085000DF93EC0102C00E940604FE012196849100
:100860008823C9F7DF91CF910895CF93DF93EC01EF
:1008700002C00E940604FE01219684918823C9F7D4
:10088000DF91CF910895D49AD59AD69AA49AA59A31
:10089000A69AA79A80E09DE70197F1F7AD9AAC9AE6
:1008A000DE9A00C0DE9880E097E20197F1F7DE9AC9
:1008B00000C0DE9880E890E0FC013197F1F7DE9A05
:1008C00000C0DE98FC013197F1F7AC98DE9A00C0C9
:1008D000DE980197F1F788E20E94DE0388E00E942B
:1008E000DE030E94FE0386E00E94DE038CE00E948D
:1008F000DE03089581E090E063E070E041E050E0C5
:100900000E94290688EB9BE020E931E0F90131974C
:10091000F1F70197D9F781E090E063E070E040E003
:1009200050E00E94290608954F925F926F927F9245
:100930008F929F92AF92BF92CF92DF92EF92FF92EF
:100940000F931F93DF93CF93CDB7DEB7C05AD0403C
:100950000FB6F894DEBF0FBECDBF0E947A0480E8C8
:1009600095E20E94240283E090E00E9466070E94C4
:10097000430484E590E00E9435048EE190E00E94FB
:1009800017120E94950F0E9408120E94DD080E9413
:1009900008120E94900D0E9408120E9488090E946D
:1009A000081240E9C42E41E0D42E3BE0E32EF12CA6
:1009B000EC0EFD1E8E010B5E1F4F2FE1622E712C7F
:1009C0006C0E7D1E99E2892E912C8C0E9D1E80E668
:1009D000482E80E0582E5E010894A11CB11C0E9494
:1009E0005F0B019709F04DC00E940812C701B801C2
:1009F000A3010E94A90B0E94FE03C7010E941B04D1
:100A000080E061E00E94F203C8010E941B040E9482
:100A100008128DB79EB70A970FB6F8949EBF0FBE07
:100A20008DBFEDB7FEB73196ADB7BEB712969C92AB
:100A30008E92119753824282F582E4821783068355
:100A4000718660860E94E0138DB79EB70A960FB636
:100A5000F8949EBF0FBE8DBFC401B5010E94990AD4
:100A60000E9408120E94FE03C5010E941B0480E13F
:100A700097E2F6013197F1F70197D9F728E833E1CA
:100A80000EC00E94FE0385E990E00E941B0484EFE3
:100A900091E0F6013197F1F70197D9F7EFCFC60151
:100AA0000197F1F72150304009F499CFF8CF0F9317
:100AB0001F93DF93CF93CDB7DEB727970FB6F89488
:100AC000DEBF0FBECDBF8E010F5F1F4FA8012AE012
:100AD00030E00E94A413C8010E941B0427960FB6A1
:100AE000F894DEBF0FBECDBFCF91DF911F910F9164
:100AF00008950F931F93DF93CF93CDB7DEB727975A
:100B00000FB6F894DEBF0FBECDBF8E010F5F1F4F33
:100B1000A8012AE030E00E94A413C8010E94B50297
:100B200027960FB6F894DEBF0FBECDBFCF91DF91F1
:100B30001F910F9108950F931F93DF93CF93CDB71C
:100B4000DEB727970FB6F894DEBF0FBECDBF8E017C
:100B50000F5F1F4FB8014AE050E00E948313C801A5
:100B60000E94B50227960FB6F894DEBF0FBECDBF28
:100B7000CF91DF911F910F9108958230F9F083306A
:100B800018F4813031F407C0833059F1843009F40E
:100B900042C080E00895693019F41ABA89B3089503
:100BA0008AB321E030E0062E02C0220F331F0A94E0
:100BB000E2F7209528232ABB89B325C0693019F4B0
:100BC00017BA86B3089587B321E030E0062E02C03D
:100BD000220F331F0A94E2F72095282327BB86B300
:100BE00012C0693019F414BA83B3089584B321E0B4
:100BF00030E0062E02C0220F331F0A94E2F7209540
:100C0000282324BB83B390E002C0959587956A950D
:100C1000E2F781700895693019F411BA80B308952C
:100C200031B381E090E0062E02C0880F991F0A942C
:100C3000E2F7282F2095232321BB22B3822B82BBEE
:100C400080B390E002C0959587956A95E2F7817030
:100C50000895823009F441C0833020F4813009F0D6
:100C6000D7C007C0833009F46CC0843009F0D0C00D
:100C70009CC06B3521F48FEF8ABB4BBB0895442396
:100C800021F0413009F0C4C014C0693021F48FEF65
:100C90008ABB1BBA08958AB321E030E002C0220F5C
:100CA000331F6A95E2F7822B8ABB8BB320952823EA
:100CB00012C0693021F48FEF8ABB8BBB08958AB3D1
:100CC00021E030E002C0220F331F6A95E2F7822B49
:100CD0008ABB8BB3282B2BBB08956B3521F48FEF88
:100CE00087BB48BB0895442321F0413009F090C0F0
:100CF00014C0693021F48FEF87BB18BA089587B309
:100D000021E030E002C0220F331F6A95E2F7822B08
:100D100087BB88B32095282312C0693021F48FEF58
:100D200087BB88BB089587B321E030E002C0220F63
:100D3000331F6A95E2F7822B87BB88B3282B28BB29
:100D400008956B3521F48FEF84BB45BB0895442390
:100D500021F0413009F05CC014C0693021F48FEFFC
:100D600084BB15BA089584B321E030E002C0220F9D
:100D7000331F6A95E2F7822B84BB85B32095282325
:100D800012C0693021F48FEF84BB85BB089584B312
:100D900021E030E002C0220F331F6A95E2F7822B78
:100DA00084BB85B3282B25BB08956B3521F48FEFC9
:100DB00081BB42BB0895442319F0413049F515C069
:100DC000693021F48FEF81BB12BA089581B321E01D
:100DD00030E002C0220F331F6A95E2F7822B81BBFD
:100DE00082B32095282322BB0895693021F48FEF28
:100DF00081BB82BB089581B321E030E002C0220FA5
:100E0000331F6A95E2F7822B81BB82B3282B22BB6A
:100E10000895833019F1843009F43CC0823009F020
:100E200054C0442321F0413009F04FC00CC027B317
:100E300081E090E002C0880F991F6A95E2F78095E3
:100E4000822387BB089527B381E090E002C0880F1A
:100E5000991F6A95E2F7282B27BB0895442319F0C0
:100E6000413099F50CC024B381E090E002C0880FB6
:100E7000991F6A95E2F78095822384BB089524B375
:100E800081E090E002C0880F991F6A95E2F7282B55
:100E900024BB0895442319F04130B9F40CC021B3A8
:100EA00081E090E002C0880F991F6A95E2F7809573
:100EB000822381BB089521B381E090E002C0880FB6
:100EC000991F6A95E2F7282B21BB0895882321F406
:100ED00081E067E040E004C0813041F467E041E038
:100EE0000E94290683E062E040E00AC0823059F4A3
:100EF00081E067E040E00E94290683E062E041E093
:100F00000E9429060895833051F481E067E041E0B2
:100F10000E94290683E062E041E00E9429060895CC
:100F2000EF92FF920F931F93CF93DF93EA010E94FA
:100F30006913009719F420E030E01DC0019660EAC3
:100F400070E00E9469137C0183E090E0E80EF91ED6
:100F5000C70162E270E00E9425138C010E191F097F
:100F6000CE01B701A8010E944F130C0F1D1FF801FD
:100F7000108221E030E0C901DF91CF911F910F91E4
:100F8000FF90EF900895DB010D900020E9F7119795
:100F9000A61BB70B4A2F50E00E94371320E030E029
:100FA000892B11F421E030E0C90108950E94D51287
:100FB000089583ED90E00E94BF0288EC90E00E94CB
:100FC0006A0E84E092E060ED70E00E940B13892BC2
:100FD000B9F4A39AAB9AAB9884E099E220E931E0A6
:100FE000F9013197F1F70197D9F7AB9A80E593ECC6
:100FF00020E931E0F9013197F1F70197D9F7089528
:10100000A39AAB9AAB9884E099E220E931E0F90128
:101010003197F1F70197D9F7AB9A80E395E720E98B
:1010200031E0F9013197F1F70197D9F7AB9AAB9815
:1010300084E099E220E931E0F9013197F1F7019775
:10104000D9F7AB9A0895CF92DF92FF920F931F9337
:10105000CF93DF9310E0C0E0D0E090E9C92E91E09B
:10106000D92E08C080ED97E0F6013197F1F701978E
:10107000D9F721960E94E502892B19F4C233D105D4
:1010800088F3C436D10509F43EC00E948C02E12FDA
:10109000F0E0EC5FFD4F80838A3099F5133088F1E2
:1010A000FF2400E010E080E9C82E81E0D82E09C0BE
:1010B00080ED97E0F6013197F1F70197D9F70F5FCF
:1010C0001F4F0E94E502892B19F40A30110580F3A5
:1010D00004361105C1F0CF2DD0E00E948C02CC5F08
:1010E000DD4F88838A3059F482E08F1540F40E94E6
:1010F0000703FE013197108221E030E006C0F3942F
:10110000E0CF1F5FB7CF20E030E0C901DF91CF9182
:101110001F910F91FF90DF90CF900895AF92BF92F3
:10112000CF92DF92FF920F931F93CF93DF936C01C7
:10113000FF24C0E0D0E020EAA22E2FE0B22E04C0AF
:101140002196C5010197F1F70E94E502892B19F458
:10115000CC15DD05A8F3CC15DD05C9F00F2D10E089
:101160000E948C02F801EC5FFD4F80838A3069F4A5
:1011700082E08F1550F40E940703980121503040FF
:10118000F901EC5FFD4F108204C0F394DDCF20E045
:1011900030E0C901DF91CF911F910F91FF90DF9057
:1011A000CF90BF90AF90089588ED90E00E94BF026D
:1011B00088EC90E00E948E08089588EE93E020E984
:1011C00031E0F9013197F1F70197D9F70E94070350
:1011D0000E9407038CE591E00E94BF0288EC90E03A
:1011E0000E948E0880E391E00E94BF0284EC99E0A7
:1011F00020E931E0F9013197F1F70197D9F788EC4F
:1012000090E00E948E0881E090E00895AF92BF9236
:10121000DF92EF92FF920F931F93DF93CF9300D053
:101220000F92CDB7DEB7DD24EE24FF2430E9A32EE4
:1012300031E0B32E0AC080ED97E0F5013197F1F768
:101240000197D9F70894E11CF11C0E94E502892B53
:1012500021F482E3E816F10470F3E4E6EE16F104FB
:1012600009F446C00D2D10E00E948C020C5F1D4F4A
:10127000F80180838A30D1F5F2E0FD15B8F50E94BF
:101280000703F8013197108284E092E06CE270E08D
:101290000E9425137C010894E11CF11CC7016CE23B
:1012A00070E00E942513FC0111928F01CF016DE0C7
:1012B00070E00E942513FC01108280E092E0B801EA
:1012C0000E9430138E010F5F1F4FC801B7010E94AB
:1012D000301380E092E00E94D5129093FF0180933A
:1012E000FE01C8010E94D5129C0104C0D394ADCF69
:1012F00020E030E0C9010F900F900F90CF91DF9167
:101300001F910F91FF90EF90DF90BF90AF900895E5
:1013100081E291E00E94BF0284EC99E020E931E093
:10132000F9013197F1F70197D9F780ED97E00E9425
:101330008E0884E092E06CE270E00E945E13FC0193
:101340008281803319F083E191E031C084E091E043
:101350000E94BF0288EC90E00E948E0884E297E72A
:1013600020E931E0F9013197F1F70197D9F785EFDD
:1013700090E00E94BF0284EC99E020E931E0F9019D
:101380003197F1F70197D9F780ED97E00E948E0829
:1013900084E092E06CE270E00E945E13FC018281C6
:1013A000803319F420E030E00AC087EE90E00E941C
:1013B000BF0288EC90E00E948E0821E030E0C90175
:1013C0000895CF92DF92EF92FF920F931F93CF93E6
:1013D000DF938C016B0140E9E42E41E0F42E0E9482
:1013E000070384E890E00E94BF02C8010E94BF0288
:1013F00080E890E00E94BF0288EC90E00E948E0896
:101400008EE690E00E94BF0288EC90E00E948E0879
:101410000E940609EC0182E0C935D80728F18091C5
:10142000CE009091CF008A319105F4F04C97E4F40E
:101430000E94D40888EA91E6F7013197F1F7019705
:10144000D9F70E94880988EB98E8F7013197F1F7FE
:101450000197D9F78091CE009091CF00019690939B
:10146000CF008093CE00BBCF8091CE009091CF0073
:101470004C9764F11092CF001092CE000E94D907D1
:1014800080E593EC20E931E0F9013197F1F701971C
:10149000D9F780E49CE920E931E0F9013197F1F7CF
:1014A0000197D9F780E49CE920E931E0F90131970F
:1014B000F1F70197D9F780E49CE920E931E0F901DF
:1014C0003197F1F70197D9F70E9488098091CE00F2
:1014D0009091CF0001969093CF008093CE008091A1
:1014E000FE019091FF01893C91051CF0C9E0D3E019
:1014F00016C0C83CD10599F41092CF001092CE00CE
:101500000E94070380E690E00E94BF020E94230829
:10151000019729F4C60164E072E00E943013CE0105
:10152000DF91CF911F910F91FF90EF90DF90CF90BF
:101530000895CF92DF92EF92FF920F931F93CF9374
:10154000DF937C016B0100E911E00E9407038CEB43
:1015500090E00E94BF02C7010E94B50288EB90E0B4
:101560000E94BF0288EC90E00E948E088CE291E01D
:10157000F8013197F1F70197D9F786EA90E00E94D8
:10158000BF0280E797E10E948E080E940609EC01E5
:1015900082E0C935D80728F18091CE009091CF0024
:1015A0008A319105F4F04C97E4F40E94D40888EA5B
:1015B00091E6F8013197F1F70197D9F70E94880970
:1015C00088EB98E8F8013197F1F70197D9F7809106
:1015D000CE009091CF0001969093CF008093CE00E3
:1015E000B4CF8091CE009091CF004C9764F11092CF
:1015F000CF001092CE000E94D90780E593EC20E93D
:1016000031E0F9013197F1F70197D9F780E49CE9CE
:1016100020E931E0F9013197F1F70197D9F780E43A
:101620009CE920E931E0F9013197F1F70197D9F709
:1016300080E49CE920E931E0F9013197F1F7019765
:10164000D9F70E9488098091CE009091CF00019631
:101650009093CF008093CE008091FE019091FF0186
:10166000893C91051CF0C9E0D3E01FC0C83CD105FE
:10167000E1F48CE291E020E931E0F9013197F1F7F2
:101680000197D9F71092CF001092CE000E94070365
:1016900088E990E00E94BF020E942308019729F484
:1016A000C60164E072E00E943013CE01DF91CF9159
:1016B0001F910F91FF90EF90DF90CF9008950F93BF
:1016C0001F93DF93CF93CDB7DEB7C656D0400FB68A
:1016D000F894DEBF0FBECDBF0E9407038CE791E0F8
:1016E0000E94BF020E948C02CA97E1F784EC99E045
:1016F00020E931E0F9013197F1F70197D9F78E012F
:101700000D5F1F4FC8016FE570E00E94C902C8015C
:101710006CE270E00E942513BC016F5F7F4F8E0169
:101720000F5F1F4FC80141E050E00E944F131A8223
:101730000E940703C8010E94D512CA59DF4F0FB695
:10174000F894DEBF0FBECDBFCF91DF911F910F91F7
:1017500008952F923F924F925F926F927F928F9255
:101760009F92AF92BF92CF92DF92EF92FF920F9330
:101770001F93DF93CF93CDB7DEB7C856D0400FB6D7
:10178000F894DEBF0FBECDBF2C011B01A9965FAF41
:101790004EAFA9970E94070389E891E00E94BF021B
:1017A0000E948C02CA97E1F784EC99E020E931E0CD
:1017B000F9013197F1F70197D9F78E010D5F1F4FAE
:1017C000C8016FE570E00E94C902C8016CE270E0D8
:1017D0000E9425134C010894811C911CC4016CE2E9
:1017E00070E00E94251301966CE270E00E942513C0
:1017F0006C010894C11CD11CC6016CE270E00E940F
:1018000025135C013C010894611C711CC3016CE24E
:1018100070E00E9425137C0101966CE270E00E944A
:1018200025138C010F5F1F4FC8016CE270E00E940E
:101830002513FC011082F7011082F5011082C2010C
:10184000B6010E943013C101B3010E943013A99662
:101850008EAD9FADA997B8010E9430138E010F5F26
:101860001F4FC801B40141E050E00E944F131A829B
:101870000E940703C8010E94D512C859DF4F0FB656
:10188000F894DEBF0FBECDBFCF91DF911F910F91B6
:10189000FF90EF90DF90CF90BF90AF909F908F9090
:1018A0007F906F905F904F903F902F900895AF92F0
:1018B000BF92CF92DF92FF920F931F93CF93DF934C
:1018C0006C01FF24C0E0D0E080EAA82E8FE0B82EA3
:1018D00004C02196C5010197F1F70E94E502892B0A
:1018E00019F4CC15DD05A8F3CC15DD05C9F00F2DD5
:1018F00010E00E948C02F801EC55FD4F80838A3085
:1019000069F482E08F1550F40E940703980121507A
:101910003040F901EC55FD4F108204C0F394DDCF47
:1019200020E030E0C901DF91CF911F910F91FF902E
:10193000DF90CF90BF90AF9008950F931F93CF93F8
:10194000DF930E94070386E992E00E94BF0288ECC1
:1019500090E00E94570C8AE692E00E94BF0284EC5D
:1019600099E020E931E0F9013197F1F70197D9F7D2
:1019700088EC90E00E94570C8BE592E00E94BF0239
:1019800088EC90E00E94570C80E395E720E931E075
:10199000F9013197F1F70197D9F70E9407038CE419
:1019A00092E00E94BF0284EC99E020E931E0F90165
:1019B0003197F1F70197D9F780ED97E00E94570C26
:1019C00084EA92E06CE270E00E945E13FC01828186
:1019D000803319F420E030E067C08DE292E00E948D
:1019E000BF0288EC90E00E94570C87E192E00E94D1
:1019F000BF0288EC90E00E94570C83E092E00E94C6
:101A0000BF0288EC90E00E94570C88EE91E00E94A3
:101A1000BF0288EC90E00E94570C84ED91E00E9498
:101A2000BF0288EC90E00E94570C83EC91E00E948A
:101A3000BF02C0E0D0E000E911E008C080ED97E00F
:101A4000F8013197F1F70197D9F721960E948C029E
:101A5000CA9721F081E0CC32D80781F784EC99E075
:101A600020E931E0F9013197F1F70197D9F70E94A8
:101A700007038CEA91E00E94BF0284EF91E00E948C
:101A8000570C86E991E00E94BF0284EF91E00E942A
:101A9000570C80E29EE420E931E0F9013197F1F73B
:101AA0000197D9F721E030E0C901DF91CF911F9173
:101AB0000F9108950E94070386E093E00E94BF0201
:101AC00088EC90E00E94570C87EF92E00E94BF02E2
:101AD00088EC90E00E94570C81E090E0089580ED42
:101AE00097E020E931E0F9013197F1F70197D9F753
:101AF0000E94070385E193E00E94BF0288EC90E01A
:101B00000E94570C84EA92E06CE270E00E945E133F
:101B100001960E94D51280935D0390935E03089511
:101B20000F931F93CF93DF930E946F0D892B11F4B6
:101B30000E949D0C0E946F0D181619060CF045C0EE
:101B400083EA90E00E94B5020E948C028B349105DA
:101B5000D9F780ED97E020E931E0F9013197F1F70D
:101B60000197D9F788EE92E00E94BF0288EC90E0DE
:101B70000E94570C84EC99E020E931E0F90131979B
:101B8000F1F70197D9F784ED92E00E94BF0288EC4B
:101B900090E00E94570CC0E0D0E000EA1FE004C0D3
:101BA0002196C8010197F1F70E948C02CA9721F093
:101BB00087E2C031D807A1F780E49CE90197F1F7EB
:101BC0000E940703C051D74291F40E94070385EC9D
:101BD00092E00E94BF0288EC90E00E94570C86EBD6
:101BE00092E00E94BF0288EC90E00E94570C81E0D6
:101BF00090E0DF91CF911F910F910895EF92FF92A6
:101C00000F931F93DF93CF93CDB7DEB769970FB6CE
:101C1000F894DEBF0FBECDBF7C010E94070300D049
:101C200000D000D0EDB7FEB731968E010F5F1F4F89
:101C3000ADB7BEB712961C930E93119785EC90E04A
:101C400093838283F582E4820E94E0138DB79EB76E
:101C500006960FB6F8949EBF0FBE8DBFC8010E94B6
:101C6000B50280ED97E020E931E0F9013197F1F715
:101C70000197D9F769960FB6F894DEBF0FBECDBFB6
:101C8000CF91DF911F910F91FF90EF9008950F93E7
:101C90001F93CF93DF93C1E0D0E000E911E086EC21
:101CA00093E00E94BF02CE010E949B0583EC93E06B
:101CB0000E94BF0280ED97E0F8013197F1F701979C
:101CC000D9F72196C331D10551F7DF91CF911F91FB
:101CD0000F910895AF92BF92CF92DF92FF920F9330
:101CE0001F93CF93DF936C01FF2400E010E080EAA4
:101CF000A82E8FE0B82E05C00F5F1F4FC5010197BA
:101D0000F1F70E94E502892B19F40C151D05A0F3CB
:101D10000C151D05B1F0CF2DD0E00E948C02CF59DB
:101D2000DC4F88838A3059F482E08F1540F40E949A
:101D30000703FE01319710828F2D815003C0F39469
:101D4000E0CF80E0DF91CF911F910F91FF90DF9066
:101D5000CF90BF90AF900895EF92FF920F931F9393
:101D6000DF93CF9300D00F92CDB7DEB70E94070369
:101D700086E293E00E94BF0288EC90E00E946A0E27
:101D800081E693E062E270E00E9425138C0181E617
:101D900093E06FE270E00E942513FC0110820F5F58
:101DA0001F4F7E010894E11CF11CC701B8010E947D
:101DB0003013C7010E94D51220E030E0419714F0A3
:101DC00021E030E0C9010F900F900F90CF91DF918B
:101DD0001F910F91FF90EF9008950F931F93CF9352
:101DE000DF93C0E0D0E000E911E008C080ED97E0AB
:101DF000F8013197F1F70197D9F721960E94AC0EBF
:101E0000892B19F4C436D10589F720E030E0EC972E
:101E100011F021E030E0C901DF91CF911F910F91C6
:101E2000089584E393E00E94BF0288EC90E00E9452
:101E30006A0E81E693E061E373E00E940B13892B45
:101E4000B9F4A39AAB9AAB9884E099E220E931E027
:101E5000F9013197F1F70197D9F7AB9A80E593EC47
:101E600020E931E0F9013197F1F70197D9F70895A9
:101E7000A39AAB9AAB9884E099E220E931E0F901AA
:101E80003197F1F70197D9F7AB9A80E395E720E90D
:101E900031E0F9013197F1F70197D9F7AB9AAB9897
:101EA00084E099E220E931E0F9013197F1F70197F7
:101EB000D9F7AB9A089589E393E00E94BF0288ECBA
:101EC00090E00E946A0E08958DE493E00E94BF02A4
:101ED00088EC90E00E946A0E86E493E00E94BF02C4
:101EE00088EC90E00E946A0E089588EB93E00E94CF
:101EF000BF0288EC90E00E946A0E81E693E06DEAF2
:101F000073E00E940B13892B19F021E030E00BC025
:101F100081E693E062EA73E00E940B13009711F0F0
:101F200081E090E09C01C90108950F931F93CF9326
:101F3000DF9380E197E220E931E0F9013197F1F791
:101F40000197D9F70E9407038BE993E00E94BF0233
:101F500088EC90E00E946A0E84EF91E020E931E085
:101F6000F9013197F1F70197D9F70E94070386E944
:101F700093E00E94BF0288EC90E00E946A0E81E626
:101F800093E063E973E00E940B13892BB1F4A39AE9
:101F9000AB9AAB9884E099E220E931E0F9013197FE
:101FA000F1F70197D9F7AB9A80E593EC20E931E09E
:101FB000F9013197F1F70197D9F70E9407038CE8EF
:101FC00093E00E94BF0288EC90E00E946A0E84EFCA
:101FD00091E020E931E0F9013197F1F70197D9F764
:101FE0000E9407038DE793E00E94BF0288EC90E017
:101FF0000E94570C84EC99E020E931E0F901319717
:10200000F1F70197D9F70E94070382E793E00E9456
:10201000BF0288EC90E00E946A0E81E693E065E6DC
:1020200073E00E940B13892BA9F10E94070389E535
:1020300093E00E94BF0288EC90E00E946A0E84EF59
:1020400091E020E931E0F9013197F1F70197D9F7F3
:102050000E940703C0E0D0E000E911E008C080ED75
:1020600097E0F8013197F1F70197D9F721960E948F
:10207000750F892B21F0C436D10529F40BC0C43665
:10208000D10569F707C00E94640F0E94ED0E21E0A0
:1020900030E002C020E030E0C901DF91CF911F9114
:1020A0000F9108950F931F93CF93DF93EC018B0152
:1020B0000E94070383ED93E00E94BF02C8010E94C3
:1020C000BF028FEC93E00E94BF0280ED97E020E911
:1020D00031E0F9013197F1F70197D9F788EE93E0F4
:1020E00020E931E0F9013197F1F70197D9F7CE01F5
:1020F0000E94BF0288EE93E020E931E0F9013197B8
:10210000F1F70197D9F78AE190E00E94B10288ECDB
:1021100090E00E946A0E109261030E94070380E320
:1021200095E720E931E0F9013197F1F70197D9F707
:10213000DF91CF911F910F9108950F931F93CF932C
:10214000DF93EC018B010E94070381EE93E00E9474
:10215000BF02C8010E94B5028DED93E00E94BF024C
:1021600080ED97E020E931E0F9013197F1F701972F
:10217000D9F788EE93E020E931E0F9013197F1F7E2
:102180000197D9F7CE010E94B50288EE93E020E9CD
:1021900031E0F9013197F1F70197D9F78AE190E041
:1021A0000E94B10288EC90E00E946A0E10926103D6
:1021B0000E94070380E395E720E931E0F9013197B8
:1021C000F1F70197D9F7DF91CF911F910F91089502
:1021D0008F929F92AF92BF92CF92DF92EF92FF9237
:1021E0000F931F93CF93DF935C016B0180915F038B
:1021F00090916003892B31F481E090E0909360032B
:1022000080935F03C0E0D0E090E9892E91E0992EA1
:102210000E947D03E1E6F3E0119283E0E13EF807DE
:10222000D9F70E9407038AEF93E00E94BF028091D2
:102230005F03909160030E949B0587EF93E00E94EB
:10224000BF0284E699E1F4013197F1F70197D9F7DC
:1022500000E008C00E948C02E02FF0E0EF59FC4F34
:1022600080830F5F0E94E502181619069CF3000098
:1022700081E693E062E270E00E942513019662E23B
:1022800070E00E942513019662E270E00E9425131F
:102290007C01019662E270E00E942513019662E2E1
:1022A00070E00E942513019662E270E00E942513FF
:1022B000019662E270E00E942513019662E270E0EE
:1022C0000E94251301966AE070E00E9425138C019C
:1022D0000F5F1F4FC8016DE070E00E942513FC01E5
:1022E0001082C501B8010E943013C7016BE270E093
:1022F0000E942513BC016D5F7F4FC6014AE050E08C
:102300000E944F132196C230D10509F081CF8EEE85
:1023100093E00E94BF0280915F03909160030E944E
:102320009B058BEE93E00E94BF0288EC90E00E9438
:102330006A0E10926103DF91CF911F910F91FF9070
:10234000EF90DF90CF90BF90AF909F908F900895C7
:102350000F931F93DF93CF9300D000D0CDB7DEB79C
:1023600088EC90E00E946A0E882351F1E82FF0E09B
:10237000EF59FC4F108283E693E063E074E046E09F
:1023800050E00E94F312892BD9F481E693E06CE2CD
:1023900070E00E942513BC016F5F7F4F8E010F5FBD
:1023A0001F4FC8010E943013C8010E94D51290939C
:1023B000600380935F031092610321E030E002C06C
:1023C00020E030E0C9010F900F900F900F90CF9157
:1023D000DF911F910F91089581E090E090930404A4
:1023E000809303041DBC1CBC85E08EBD84E089BFC6
:1023F000089588E10FB6F89481BD11BC0FBE10920C
:102400000404109203041DBC1CBC1EBC19BE08951C
:1024100081E090E0909304048093030419BE1EBCF5
:102420001DBC1CBC85E08EBD84E089BF08957894F6
:1024300021E030E030930404209303041DBC1CBC55
:1024400025E02EBD24E029BF65E070E00E947112F6
:10245000709302046093010408951F920F920FB6C7
:102460000F9211242F933F938F939F9320910304F6
:1024700030910404809101049091020428173907D7
:1024800010F08FE081BD2F5F3F4F30930404209305
:1024900003049F918F913F912F910F900FBE0F904A
:1024A0001F901895629FD001739FF001829FE00DED
:1024B000F11D649FE00DF11D929FF00D839FF00DC3
:1024C000749FF00D659FF00D9927729FB00DE11D6F
:1024D000F91F639FB00DE11DF91FBD01CF0111244C
:1024E000089597FB092E07260AD077FD04D049D01E
:1024F00006D000201AF4709561957F4F0895F6F785
:10250000909581959F4F0895A1E21A2EAA1BBB1B9F
:10251000FD010DC0AA1FBB1FEE1FFF1FA217B307AF
:10252000E407F50720F0A21BB30BE40BF50B661FC5
:10253000771F881F991F1A9469F760957095809589
:1025400090959B01AC01BD01CF01089597FB092E29
:1025500005260ED057FD04D0D7DF0AD0001C38F472
:1025600050954095309521953F4F4F4F5F4F0895BF
:10257000F6F790958095709561957F4F8F4F9F4F9F
:102580000895AA1BBB1B51E107C0AA1FBB1FA617BA
:10259000B70710F0A61BB70B881F991F5A95A9F70C
:1025A00080959095BC01CD010895FC01882799275D
:1025B000E89421912032E9F3293010F02E30C8F34D
:1025C0002B3241F02D3239F4689404C00E94D813A4
:1025D000820F911D219120532A30C0F31EF4909553
:1025E00081959F4F0895FB01DC014150504088F0D8
:1025F0008D9181341CF08B350CF4805E65916134D3
:102600001CF06B350CF4605E861B611171F3990B45
:102610000895881BFCCFFB0155915523A9F0BF01FC
:10262000DC014D9145174111E1F759F4CD010590B9
:10263000002049F04D9140154111C9F3FB014111B2
:10264000EFCF81E090E001970895FC01819186171A
:1026500021F08823D9F7992708953197CF0108955C
:10266000FB01DC0101900D920020E1F70895FB01D0
:10267000DC014150504088F08D9181341CF08B3545
:102680000CF4805E619161341CF06B350CF4605E7B
:10269000861B611171F3990B0895881BFCCFFB0118
:1026A000DC014150504048F001900D920020C9F7E4
:1026B00001C01D9241505040E0F70895FC0181E0B7
:1026C00090E00190061609F4CF010020D1F70197A0
:1026D0000895FB0151915523A9F0BF01DC014D91F3
:1026E00045174111E1F759F4CD010190002049F05F
:1026F0004D9140154111C9F3FB014111EFCF81E02C
:1027000090E001970895FB019F01E8944230C4F0E6
:102710004532B4F44A3029F497FB1EF49095819524
:102720009F4F642F77270E94C112805D8A330CF07F
:10273000895D8193CB010097A1F716F45DE2519377
:102740001082C9010C94F715FA01CF93FF93EF9310
:10275000223044F1253234F5C22FE894CA3049F4CE
:1027600097FB3EF490958095709561957F4F8F4FC4
:102770009F4F2C2F332744275527FF93EF930E9419
:102780008412EF91FF91605D6A330CF0695D619393
:10279000B901CA01605070408040904051F716F472
:1027A000CDE2C19310828F919F91CF910C94F71538
:1027B0007AE0979F902D879F802D910D1124089589
:1027C000AEE0B0E0E6EEF3E10C949F160D891E89B1
:1027D00086E08C831A8309838FEF9FE79E838D8326
:1027E0009E01275E3F4FCE0101966F89788DA9012A
:1027F0000E9404142F813885020F131FF8011082E4
:102800002E96E4E00C94BB16ABE0B0E0EAE0F4E115
:102810000C9491163C012B015A01FC01178216827F
:10282000838181FD03C06FEF7FEFC6C19AE0892EDF
:102830001E010894211C311CF3012381F20123FDA8
:10284000859123FF81912F01882309F4B2C185323C
:1028500039F423FD859123FF81912F01853229F4DD
:1028600090E0B3010E940716E7CF982FFF24EE24D3
:102870009924FFE1FF15D0F09B3269F09C3228F4D7
:10288000903259F0933291F40EC09D3249F090335A
:1028900069F441E024C052E0F52A84E0F82A28C017
:1028A00098E0F92A25C0E0E1FE2A22C0F7FC29C001
:1028B000892F80538A3070F4F6FE05C0989C902CC6
:1028C0001124980E15C0E89CE02C1124E80EF0E2CB
:1028D000FF2A0EC09E3229F4F6FC6BC140E4F42AB4
:1028E00007C09C3619F450E8F52A02C0983649F41E
:1028F000F20123FD959123FF91912F01992309F076
:10290000B8CF892F8554833018F08052833038F443
:1029100044E050E0A40EB51E5FE359830FC0933628
:1029200031F0933779F0933509F056C020C0F501A6
:102930008081898342E050E0A40EB51E610101E070
:1029400010E012C0F501C080D180F6FC03C06FEF2B
:102950007FEF02C0692D70E042E050E0A40EB51E8A
:10296000C6010E94EC158C015FE7F52214C0F50149
:10297000C080D180F6FC03C06FEF7FEF02C0692DED
:1029800070E042E050E0A40EB51EC6010E94E115C1
:102990008C0150E8F52AF3FE07C01AC080E290E0EF
:1029A000B3010E940716EA948E2D90E008171907CC
:1029B000A8F30EC0F601F7FC8591F7FE81916F0137
:1029C00090E0B3010E940716E110EA940150104014
:1029D0000115110579F7EAC0943611F0993669F5B9
:1029E000F7FE08C0F501208131814281538184E0E6
:1029F00090E00AC0F501808191819C01442737FD58
:102A00004095542F82E090E0A80EB91E9FE6F9226F
:102A100057FF09C050954095309521953F4F4F4F36
:102A20005F4FE0E8FE2ACA01B901A1012AE030E0C7
:102A30000E943316D82ED21840C0953729F41F2D86
:102A40001F7E2AE030E01DC01F2D197F9F3661F0E8
:102A5000903720F4983509F0ACC00FC0903739F0AA
:102A6000983709F0A6C004C028E030E00AC0106121
:102A700014FD146020E130E004C014FD166020E174
:102A800032E017FF08C0F501608171818281938176
:102A900044E050E008C0F50180819181BC0180E0F4
:102AA00090E042E050E0A40EB51EA1010E94331652
:102AB000D82ED2188FE7F82EF122F6FE0BC05EEF6B
:102AC000F522D91438F4F4FE07C0F2FC05C08FEEED
:102AD000F82202C01D2D01C0192DF4FE0DC0FE010B
:102AE000ED0DF11D8081803319F499EEF92208C0B3
:102AF0001F5FF2FE05C003C08F2D867809F01F5FAF
:102B00000F2DF3FC14C0F0FE0FC01E1510F09D2C0D
:102B10000BC09D2C9E0C911A1E2D06C080E290E0E9
:102B2000B3010E9407161F5F1E15C0F304C01E15D7
:102B300010F4E11A01C0EE2404FF0FC080E390E01E
:102B4000B3010E94071602FF1DC001FD03C088E704
:102B500090E00EC088E590E00BC0802F867891F061
:102B600001FF02C08BE201C080E2F7FC8DE290E041
:102B7000B3010E94071606C080E390E0B3010E94F3
:102B800007169A94D914C0F3DA94F101ED0DF11DF2
:102B9000808190E0B3010E940716DD20A9F706C0EE
:102BA00080E290E0B3010E940716EA94EE20C1F79C
:102BB00043CEF30166817781CB012B96E2E10C9441
:102BC000AD16FC010590615070400110D8F780955A
:102BD00090958E0F9F1F0895FC01615070400190E9
:102BE0000110D8F7809590958E0F9F1F0895DC01F6
:102BF000FC01672F71917723E1F7329704C07C9134
:102C00006D9370836291AE17BF07C8F308950F9359
:102C10001F93CF93DF938C01EB018B8181FF1BC04E
:102C200082FF0DC02E813F818C819D81281739073D
:102C300064F4E881F9810193F983E88306C0E885AB
:102C4000F985802F0995892B31F48E819F8101961A
:102C50009F838E8302C00FEF1FEFC801DF91CF91DA
:102C60001F910F910895FA01AA27283051F12031C0
:102C700081F1E8946F936E7F6E5F7F4F8F4F9F4F10
:102C8000AF4FB1E03ED0B4E03CD0670F781F891F52
:102C90009A1FA11D680F791F8A1F911DA11D6A0F20
:102CA000711D811D911DA11D20D009F468943F91D3
:102CB0002AE0269F11243019305D3193DEF6CF01D2
:102CC0000895462F4770405D4193B3E00FD0C9F798
:102CD000F6CF462F4F70405D4A3318F0495D31FD05
:102CE0004052419302D0A9F7EACFB4E0A695979558
:102CF000879577956795BA95C9F70097610571052E
:102D000008959B01AC010A2E069457954795379577
:102D10002795BA95C9F7620F731F841F951FA01DD1
:102D200008952F923F924F925F926F927F928F926F
:102D30009F92AF92BF92CF92DF92EF92FF920F934A
:102D40001F93CF93DF93CDB7DEB7CA1BDB0B0FB654
:102D5000F894DEBF0FBECDBF09942A883988488811
:102D60005F846E847D848C849B84AA84B984C884A7
:102D7000DF80EE80FD800C811B81AA81B981CE0F9E
:102D8000D11D0FB6F894DEBF0FBECDBFED01089583
:042D9000F894FFCFE5
:102D94006170692E636C6F626F75732E636F6D2F34
:102DA4005A636B37372F747261636B3F266C61749F
:102DB4003D2573266C6F6E673D25732673706565BC
:102DC400643D2573004E4F20475053204649580018
:102DD400223A0041542B4352464C4F433D933132E7
:102DE4002E3931363830312C37372E3630353031B4
:0E2DF40032940D0A0041544425733B0D0A0031
:00000001FF
